{"abi":[{"type":"constructor","inputs":[{"name":"initialOwner","type":"address","internalType":"address"}],"stateMutability":"payable"},{"type":"function","name":"DOMAIN_SEPARATOR","inputs":[],"outputs":[{"name":"","type":"bytes32","internalType":"bytes32"}],"stateMutability":"view"},{"type":"function","name":"SAB_TO_ETH","inputs":[],"outputs":[{"name":"","type":"uint256","internalType":"uint256"}],"stateMutability":"view"},{"type":"function","name":"allowance","inputs":[{"name":"owner","type":"address","internalType":"address"},{"name":"spender","type":"address","internalType":"address"}],"outputs":[{"name":"","type":"uint256","internalType":"uint256"}],"stateMutability":"view"},{"type":"function","name":"approve","inputs":[{"name":"spender","type":"address","internalType":"address"},{"name":"value","type":"uint256","internalType":"uint256"}],"outputs":[{"name":"","type":"bool","internalType":"bool"}],"stateMutability":"nonpayable"},{"type":"function","name":"balanceOf","inputs":[{"name":"account","type":"address","internalType":"address"}],"outputs":[{"name":"","type":"uint256","internalType":"uint256"}],"stateMutability":"view"},{"type":"function","name":"decimals","inputs":[],"outputs":[{"name":"","type":"uint8","internalType":"uint8"}],"stateMutability":"view"},{"type":"function","name":"eip712Domain","inputs":[],"outputs":[{"name":"fields","type":"bytes1","internalType":"bytes1"},{"name":"name","type":"string","internalType":"string"},{"name":"version","type":"string","internalType":"string"},{"name":"chainId","type":"uint256","internalType":"uint256"},{"name":"verifyingContract","type":"address","internalType":"address"},{"name":"salt","type":"bytes32","internalType":"bytes32"},{"name":"extensions","type":"uint256[]","internalType":"uint256[]"}],"stateMutability":"view"},{"type":"function","name":"getMarketCap","inputs":[],"outputs":[{"name":"","type":"uint256","internalType":"uint256"}],"stateMutability":"view"},{"type":"function","name":"getTokenPrice","inputs":[],"outputs":[{"name":"","type":"uint256","internalType":"uint256"}],"stateMutability":"view"},{"type":"function","name":"getTotalSupply","inputs":[],"outputs":[{"name":"","type":"uint256","internalType":"uint256"}],"stateMutability":"view"},{"type":"function","name":"mint","inputs":[{"name":"to","type":"address","internalType":"address"},{"name":"amount","type":"uint256","internalType":"uint256"}],"outputs":[],"stateMutability":"nonpayable"},{"type":"function","name":"name","inputs":[],"outputs":[{"name":"","type":"string","internalType":"string"}],"stateMutability":"view"},{"type":"function","name":"nonces","inputs":[{"name":"owner","type":"address","internalType":"address"}],"outputs":[{"name":"","type":"uint256","internalType":"uint256"}],"stateMutability":"view"},{"type":"function","name":"owner","inputs":[],"outputs":[{"name":"","type":"address","internalType":"address"}],"stateMutability":"view"},{"type":"function","name":"permit","inputs":[{"name":"owner","type":"address","internalType":"address"},{"name":"spender","type":"address","internalType":"address"},{"name":"value","type":"uint256","internalType":"uint256"},{"name":"deadline","type":"uint256","internalType":"uint256"},{"name":"v","type":"uint8","internalType":"uint8"},{"name":"r","type":"bytes32","internalType":"bytes32"},{"name":"s","type":"bytes32","internalType":"bytes32"}],"outputs":[],"stateMutability":"nonpayable"},{"type":"function","name":"renounceOwnership","inputs":[],"outputs":[],"stateMutability":"nonpayable"},{"type":"function","name":"symbol","inputs":[],"outputs":[{"name":"","type":"string","internalType":"string"}],"stateMutability":"view"},{"type":"function","name":"totalSupply","inputs":[],"outputs":[{"name":"","type":"uint256","internalType":"uint256"}],"stateMutability":"view"},{"type":"function","name":"transfer","inputs":[{"name":"to","type":"address","internalType":"address"},{"name":"value","type":"uint256","internalType":"uint256"}],"outputs":[{"name":"","type":"bool","internalType":"bool"}],"stateMutability":"nonpayable"},{"type":"function","name":"transferFrom","inputs":[{"name":"from","type":"address","internalType":"address"},{"name":"to","type":"address","internalType":"address"},{"name":"value","type":"uint256","internalType":"uint256"}],"outputs":[{"name":"","type":"bool","internalType":"bool"}],"stateMutability":"nonpayable"},{"type":"function","name":"transferOwnership","inputs":[{"name":"newOwner","type":"address","internalType":"address"}],"outputs":[],"stateMutability":"nonpayable"},{"type":"event","name":"Approval","inputs":[{"name":"owner","type":"address","indexed":true,"internalType":"address"},{"name":"spender","type":"address","indexed":true,"internalType":"address"},{"name":"value","type":"uint256","indexed":false,"internalType":"uint256"}],"anonymous":false},{"type":"event","name":"EIP712DomainChanged","inputs":[],"anonymous":false},{"type":"event","name":"OwnershipTransferred","inputs":[{"name":"previousOwner","type":"address","indexed":true,"internalType":"address"},{"name":"newOwner","type":"address","indexed":true,"internalType":"address"}],"anonymous":false},{"type":"event","name":"Transfer","inputs":[{"name":"from","type":"address","indexed":true,"internalType":"address"},{"name":"to","type":"address","indexed":true,"internalType":"address"},{"name":"value","type":"uint256","indexed":false,"internalType":"uint256"}],"anonymous":false},{"type":"error","name":"CannotCalculateTokenPrice","inputs":[]},{"type":"error","name":"ECDSAInvalidSignature","inputs":[]},{"type":"error","name":"ECDSAInvalidSignatureLength","inputs":[{"name":"length","type":"uint256","internalType":"uint256"}]},{"type":"error","name":"ECDSAInvalidSignatureS","inputs":[{"name":"s","type":"bytes32","internalType":"bytes32"}]},{"type":"error","name":"ERC20InsufficientAllowance","inputs":[{"name":"spender","type":"address","internalType":"address"},{"name":"allowance","type":"uint256","internalType":"uint256"},{"name":"needed","type":"uint256","internalType":"uint256"}]},{"type":"error","name":"ERC20InsufficientBalance","inputs":[{"name":"sender","type":"address","internalType":"address"},{"name":"balance","type":"uint256","internalType":"uint256"},{"name":"needed","type":"uint256","internalType":"uint256"}]},{"type":"error","name":"ERC20InvalidApprover","inputs":[{"name":"approver","type":"address","internalType":"address"}]},{"type":"error","name":"ERC20InvalidReceiver","inputs":[{"name":"receiver","type":"address","internalType":"address"}]},{"type":"error","name":"ERC20InvalidSender","inputs":[{"name":"sender","type":"address","internalType":"address"}]},{"type":"error","name":"ERC20InvalidSpender","inputs":[{"name":"spender","type":"address","internalType":"address"}]},{"type":"error","name":"ERC2612ExpiredSignature","inputs":[{"name":"deadline","type":"uint256","internalType":"uint256"}]},{"type":"error","name":"ERC2612InvalidSigner","inputs":[{"name":"signer","type":"address","internalType":"address"},{"name":"owner","type":"address","internalType":"address"}]},{"type":"error","name":"InvalidAccountNonce","inputs":[{"name":"account","type":"address","internalType":"address"},{"name":"currentNonce","type":"uint256","internalType":"uint256"}]},{"type":"error","name":"InvalidShortString","inputs":[]},{"type":"error","name":"OwnableInvalidOwner","inputs":[{"name":"owner","type":"address","internalType":"address"}]},{"type":"error","name":"OwnableUnauthorizedAccount","inputs":[{"name":"account","type":"address","internalType":"address"}]},{"type":"error","name":"StringTooLong","inputs":[{"name":"str","type":"string","internalType":"string"}]}],"bytecode":{"object":"0x6101606040526040516115be3803806115be8339810160408190526100239161026f565b6040518060400160405280600a81526020016929b0b132b92a37b5b2b760b11b81525080604051806040016040528060018152602001603160f81b815250836040518060400160405280600a81526020016929b0b132b92a37b5b2b760b11b8152506040518060400160405280600381526020016229a0a160e91b81525081600390816100b09190610334565b5060046100bd8282610334565b5050506001600160a01b0381166100ee57604051631e4fbdf760e01b81525f60048201526024015b60405180910390fd5b6100f7816101af565b50610103826006610200565b61012052610112816007610200565b61014052815160208084019190912060e052815190820120610100524660a05261019e60e05161010051604080517f8b73c3c69bb8fe3d512ecc4cf759cc79239f7b179b0ffacaa9a75d522b39400f60208201529081019290925260608201524660808201523060a08201525f9060c00160405160208183030381529060405280519060200120905090565b60805250503060c052506104469050565b600580546001600160a01b038381166001600160a01b0319831681179093556040519116919082907f8be0079c531659141344cd1fd0a4f28419497f9722a3daafe3b4186f6b6457e0905f90a35050565b5f60208351101561021b5761021483610232565b905061022c565b816102268482610334565b5060ff90505b92915050565b5f80829050601f8151111561025c578260405163305a27a960e01b81526004016100e591906103ee565b805161026782610423565b179392505050565b5f6020828403121561027f575f80fd5b81516001600160a01b0381168114610295575f80fd5b9392505050565b634e487b7160e01b5f52604160045260245ffd5b600181811c908216806102c457607f821691505b6020821081036102e257634e487b7160e01b5f52602260045260245ffd5b50919050565b601f82111561032f57805f5260205f20601f840160051c8101602085101561030d5750805b601f840160051c820191505b8181101561032c575f8155600101610319565b50505b505050565b81516001600160401b0381111561034d5761034d61029c565b6103618161035b84546102b0565b846102e8565b6020601f821160018114610393575f831561037c5750848201515b5f19600385901b1c1916600184901b17845561032c565b5f84815260208120601f198516915b828110156103c257878501518255602094850194600190920191016103a2565b50848210156103df57868401515f19600387901b60f8161c191681555b50505050600190811b01905550565b602081525f82518060208401528060208501604085015e5f604082850101526040601f19601f83011684010191505092915050565b805160208083015191908110156102e2575f1960209190910360031b1b16919050565b60805160a05160c05160e0516101005161012051610140516111276104975f395f61093401525f61090701525f6107fe01525f6107d601525f61073101525f61075b01525f61078501526111275ff3fe608060405234801561000f575f80fd5b5060043610610132575f3560e01c8063715018a6116100b457806395d89b411161007957806395d89b4114610259578063a9059cbb14610261578063c4e41b2214610274578063d505accf1461027c578063dd62ed3e1461028f578063f2fde38b146102c7575f80fd5b8063715018a6146102005780637ecebe001461020857806384b0196e1461021b5780638da5cb5b1461023657806390825c2814610251575f80fd5b80633644e515116100fa5780633644e515146101ab57806340c10f19146101b35780634b94f50e146101c85780635caef45b146101d057806370a08231146101d8575f80fd5b806306fdde0314610136578063095ea7b31461015457806318160ddd1461017757806323b872dd14610189578063313ce5671461019c575b5f80fd5b61013e6102da565b60405161014b9190610e65565b60405180910390f35b610167610162366004610e99565b61036a565b604051901515815260200161014b565b6002545b60405190815260200161014b565b610167610197366004610ec1565b610383565b6040516012815260200161014b565b61017b6103a6565b6101c66101c1366004610e99565b6103b4565b005b61017b6103ca565b61017b600181565b61017b6101e6366004610efb565b6001600160a01b03165f9081526020819052604090205490565b6101c6610415565b61017b610216366004610efb565b610428565b610223610445565b60405161014b9796959493929190610f14565b6005546040516001600160a01b03909116815260200161014b565b61017b610487565b61013e61049d565b61016761026f366004610e99565b6104ac565b61017b6104b9565b6101c661028a366004610faa565b6104c3565b61017b61029d366004611017565b6001600160a01b039182165f90815260016020908152604080832093909416825291909152205490565b6101c66102d5366004610efb565b6105fe565b6060600380546102e990611048565b80601f016020809104026020016040519081016040528092919081815260200182805461031590611048565b80156103605780601f1061033757610100808354040283529160200191610360565b820191905f5260205f20905b81548152906001019060200180831161034357829003601f168201915b5050505050905090565b5f3361037781858561063b565b60019150505b92915050565b5f3361039085828561064d565b61039b8585856106c8565b506001949350505050565b5f6103af610725565b905090565b6103bc61084e565b6103c6828261087b565b5050565b5f6103d36104b9565b5f036103f257604051633a3f663560e01b815260040160405180910390fd5b5f6103fb610487565b90506104056104b9565b61040f9082611094565b91505090565b61041d61084e565b6104265f6108af565b565b6001600160a01b0381165f9081526008602052604081205461037d565b5f6060805f805f6060610456610900565b61045e61092d565b604080515f80825260208201909252600f60f81b9b939a50919850469750309650945092509050565b5f600161049360025490565b6103af91906110b3565b6060600480546102e990611048565b5f336103778185856106c8565b5f6103af60025490565b834211156104ec5760405163313c898160e11b8152600481018590526024015b60405180910390fd5b5f7f6e71edae12b1b97f4d1f60370fef10105fa2faae0126114a169c64845d6126c98888886105378c6001600160a01b03165f90815260086020526040902080546001810190915590565b6040805160208101969096526001600160a01b0394851690860152929091166060840152608083015260a082015260c0810186905260e0016040516020818303038152906040528051906020012090505f6105918261095a565b90505f6105a082878787610986565b9050896001600160a01b0316816001600160a01b0316146105e7576040516325c0072360e11b81526001600160a01b0380831660048301528b1660248201526044016104e3565b6105f28a8a8a61063b565b50505050505050505050565b61060661084e565b6001600160a01b03811661062f57604051631e4fbdf760e01b81525f60048201526024016104e3565b610638816108af565b50565b61064883838360016109b2565b505050565b6001600160a01b038381165f908152600160209081526040808320938616835292905220545f1981146106c257818110156106b457604051637dc7a0d960e11b81526001600160a01b038416600482015260248101829052604481018390526064016104e3565b6106c284848484035f6109b2565b50505050565b6001600160a01b0383166106f157604051634b637e8f60e11b81525f60048201526024016104e3565b6001600160a01b03821661071a5760405163ec442f0560e01b81525f60048201526024016104e3565b610648838383610a84565b5f306001600160a01b037f00000000000000000000000000000000000000000000000000000000000000001614801561077d57507f000000000000000000000000000000000000000000000000000000000000000046145b156107a757507f000000000000000000000000000000000000000000000000000000000000000090565b6103af604080517f8b73c3c69bb8fe3d512ecc4cf759cc79239f7b179b0ffacaa9a75d522b39400f60208201527f0000000000000000000000000000000000000000000000000000000000000000918101919091527f000000000000000000000000000000000000000000000000000000000000000060608201524660808201523060a08201525f9060c00160405160208183030381529060405280519060200120905090565b6005546001600160a01b031633146104265760405163118cdaa760e01b81523360048201526024016104e3565b6001600160a01b0382166108a45760405163ec442f0560e01b81525f60048201526024016104e3565b6103c65f8383610a84565b600580546001600160a01b038381166001600160a01b0319831681179093556040519116919082907f8be0079c531659141344cd1fd0a4f28419497f9722a3daafe3b4186f6b6457e0905f90a35050565b60606103af7f00000000000000000000000000000000000000000000000000000000000000006006610baa565b60606103af7f00000000000000000000000000000000000000000000000000000000000000006007610baa565b5f61037d610966610725565b8360405161190160f01b8152600281019290925260228201526042902090565b5f805f8061099688888888610c53565b9250925092506109a68282610d1b565b50909695505050505050565b6001600160a01b0384166109db5760405163e602df0560e01b81525f60048201526024016104e3565b6001600160a01b038316610a0457604051634a1406b160e11b81525f60048201526024016104e3565b6001600160a01b038085165f90815260016020908152604080832093871683529290522082905580156106c257826001600160a01b0316846001600160a01b03167f8c5be1e5ebec7d5bd14f71427d1e84f3dd0314c0f7b2291e5b200ac8c7c3b92584604051610a7691815260200190565b60405180910390a350505050565b6001600160a01b038316610aae578060025f828254610aa391906110ca565b90915550610b1e9050565b6001600160a01b0383165f9081526020819052604090205481811015610b005760405163391434e360e21b81526001600160a01b038516600482015260248101829052604481018390526064016104e3565b6001600160a01b0384165f9081526020819052604090209082900390555b6001600160a01b038216610b3a57600280548290039055610b58565b6001600160a01b0382165f9081526020819052604090208054820190555b816001600160a01b0316836001600160a01b03167fddf252ad1be2c89b69c2b068fc378daa952ba7f163c4a11628f55a4df523b3ef83604051610b9d91815260200190565b60405180910390a3505050565b606060ff8314610bc457610bbd83610dd3565b905061037d565b818054610bd090611048565b80601f0160208091040260200160405190810160405280929190818152602001828054610bfc90611048565b8015610c475780601f10610c1e57610100808354040283529160200191610c47565b820191905f5260205f20905b815481529060010190602001808311610c2a57829003601f168201915b5050505050905061037d565b5f80807f7fffffffffffffffffffffffffffffff5d576e7357a4501ddfe92f46681b20a0841115610c8c57505f91506003905082610d11565b604080515f808252602082018084528a905260ff891692820192909252606081018790526080810186905260019060a0016020604051602081039080840390855afa158015610cdd573d5f803e3d5ffd5b5050604051601f1901519150506001600160a01b038116610d0857505f925060019150829050610d11565b92505f91508190505b9450945094915050565b5f826003811115610d2e57610d2e6110dd565b03610d37575050565b6001826003811115610d4b57610d4b6110dd565b03610d695760405163f645eedf60e01b815260040160405180910390fd5b6002826003811115610d7d57610d7d6110dd565b03610d9e5760405163fce698f760e01b8152600481018290526024016104e3565b6003826003811115610db257610db26110dd565b036103c6576040516335e2f38360e21b8152600481018290526024016104e3565b60605f610ddf83610e10565b6040805160208082528183019092529192505f91906020820181803683375050509182525060208101929092525090565b5f60ff8216601f81111561037d57604051632cd44ac360e21b815260040160405180910390fd5b5f81518084528060208401602086015e5f602082860101526020601f19601f83011685010191505092915050565b602081525f610e776020830184610e37565b9392505050565b80356001600160a01b0381168114610e94575f80fd5b919050565b5f8060408385031215610eaa575f80fd5b610eb383610e7e565b946020939093013593505050565b5f805f60608486031215610ed3575f80fd5b610edc84610e7e565b9250610eea60208501610e7e565b929592945050506040919091013590565b5f60208284031215610f0b575f80fd5b610e7782610e7e565b60ff60f81b8816815260e060208201525f610f3260e0830189610e37565b8281036040840152610f448189610e37565b606084018890526001600160a01b038716608085015260a0840186905283810360c0850152845180825260208087019350909101905f5b81811015610f99578351835260209384019390920191600101610f7b565b50909b9a5050505050505050505050565b5f805f805f805f60e0888a031215610fc0575f80fd5b610fc988610e7e565b9650610fd760208901610e7e565b95506040880135945060608801359350608088013560ff81168114610ffa575f80fd5b9699959850939692959460a0840135945060c09093013592915050565b5f8060408385031215611028575f80fd5b61103183610e7e565b915061103f60208401610e7e565b90509250929050565b600181811c9082168061105c57607f821691505b60208210810361107a57634e487b7160e01b5f52602260045260245ffd5b50919050565b634e487b7160e01b5f52601160045260245ffd5b5f826110ae57634e487b7160e01b5f52601260045260245ffd5b500490565b808202811582820484141761037d5761037d611080565b8082018082111561037d5761037d611080565b634e487b7160e01b5f52602160045260245ffdfea26469706673582212201187d9a5c7a34da9dd8ffe86c3a941f8b0c0c3e2cb552c9ae40fbbdf95e1f7b464736f6c634300081a0033","linkReferences":{}},"methodIdentifiers":{"DOMAIN_SEPARATOR()":"3644e515","SAB_TO_ETH()":"5caef45b","allowance(address,address)":"dd62ed3e","approve(address,uint256)":"095ea7b3","balanceOf(address)":"70a08231","decimals()":"313ce567","eip712Domain()":"84b0196e","getMarketCap()":"90825c28","getTokenPrice()":"4b94f50e","getTotalSupply()":"c4e41b22","mint(address,uint256)":"40c10f19","name()":"06fdde03","nonces(address)":"7ecebe00","owner()":"8da5cb5b","permit(address,address,uint256,uint256,uint8,bytes32,bytes32)":"d505accf","renounceOwnership()":"715018a6","symbol()":"95d89b41","totalSupply()":"18160ddd","transfer(address,uint256)":"a9059cbb","transferFrom(address,address,uint256)":"23b872dd","transferOwnership(address)":"f2fde38b"},"id":20}